:020000040800F2
:10000000C8100020C5020008B1210008B31A00087A
:10001000FD200008F7040008A52E000800000000DD
:10002000000000000000000000000000952A000809
:10003000BD0600080000000085290008892B000883
:10004000DF020008DF020008DF020008DF0200080C
:10005000DF02000887290008DF020008DF0200082D
:10006000DF020008DF020008DF020008DF020008EC
:10007000DF020008DF020008DF020008DF020008DC
:10008000DF020008DF020008DF020008DF020008CC
:10009000DF020008DF020008DF020008DF020008BC
:1000A000DF020008DF020008DF020008DF020008AC
:1000B000412C00084D2C0008DF020008DF02000878
:1000C000DF020008DF020008DF020008DF0200088C
:1000D000DF020008DF020008DF020008DF0200087C
:1000E000DF020008DF020008DF020008DF0200086C
:1000F000DF020008DF020008DF020008DF0200085C
:10010000DF020008DF020008DF020008DF0200084B
:10011000DF020008DF020008DF020008DF0200083B
:10012000DF020008DF020008DF020008DF0200082B
:10013000DF020008DF020008DF020008DF0200081B
:10014000DF020008DF020008DF020008DF0200080B
:10015000DF020008DF020008DF020008DF020008FB
:10016000DF020008DF020008DF020008DF020008EB
:10017000DF020008DF020008DF02000800000000C4
:10018000DF020008DF020008DF020008DF020008CB
:10019000DF020008DF020008DF020008DF020008BB
:1001A000DF020008DF020008DF02000800F002F8AA
:1001B00000F05EF80AA090E8000C82448344AAF1A3
:1001C0000107DA4501D100F053F8AFF2090EBAE8A1
:1001D0000F0013F0010F18BFFB1A43F0010318477B
:1001E000E43F0000044000000A444FF0000C10F807
:1001F000013B13F0070408BF10F8014B1D1108BFA5
:1002000010F8015B641E05D010F8016B641E01F844
:10021000016BF9D113F0080F1EBF10F8014BAD1C94
:100220000C1B09D16D1E58BF01F801CBFAD505E0B2
:1002300014F8016B01F8016B6D1EF9D59142D6D30C
:10024000704700000023002400250026103A28BF34
:1002500078C1FBD8520728BF30C148BF0B60704738
:100260001FB502F012FF00F0DAF81FBD10B510BD87
:1002700000F008F91146FFF7F3FF02F0AFFE00F0BF
:1002800026F903B4FFF7F2FF03BC00F02DF90000DC
:100290000B49D1F800C04A685CF8043B1068184468
:1002A00042F8040B8C4528BFA1F1DC0C8A4228BF20
:1002B000A1F1DC02C1F800C04A6020F000407047A4
:1002C000600A00200948804709480047FEE7FEE72A
:1002D000FEE7FEE7FEE7FEE7FEE7FEE7FEE7FEE7F6
:1002E00004480549054A064B70470000312C0008B8
:1002F000AD010008C80A0020C8100020C80C00206A
:10030000C80C002053EA020C00F069802DE9F04B84
:100310004FF00006002B1FBFB3FA83F503FA05F474
:1003200024FA05F65E4012BF1643B2FA82F502FACD
:1003300005F4C5F120051EBF22FA05FC44EA0C04B1
:10034000203556EA044C4FEA144418BF641C4FF0A1
:1003500000084FF00009904271EB030C39D30029DB
:1003600019BFB1FA81F701FA07F6B0FA80F700FA7F
:1003700007F6C7F120071EBF20FA07FC46EA0C0665
:100380002037B6FBF4FCA7EB0507103F07F01F0B67
:10039000CBF120060CFA0BFB2CFA06F644BFB34651
:1003A0000026202FA4BF5E464FF0000B5BEA060C30
:1003B00008BF4FF0010B19EB0B09ABFB027C48EBBC
:1003C0000608C01B06FB02CC0BFB03CC71EB0C0137
:1003D000C1E70B46024641464846BDE8F08B13B5DF
:1003E0004FF000004FF00001AFF30080BDE81C406B
:1003F000704700000B4910B5A1F17C020A4CC2E91C
:100400003712372106E000EB104342F82130074B4A
:1004100000FB03400B1EA1F10101F4DC10BD012023
:10042000E8E70000000A0020E119D666CD0D0100C2
:100430004FF0000200B5134694469646203922BF7D
:10044000A0E80C50A0E80C50B1F12001BFF4F7AFC8
:10045000090728BFA0E80C5048BF0CC05DF804EBAA
:10046000890028BF40F8042B08BF704748BF20F818
:10047000022B11F0804F18BF00F8012B7047704716
:1004800070477047754600F02BF8AE460500694688
:10049000534620F00700854618B020B5FFF720FF2F
:1004A000BDE820404FF000064FF000074FF0000875
:1004B0004FF0000B21F00701AC46ACE8C009ACE8F6
:1004C000C009ACE8C009ACE8C0098D46704710B55A
:1004D0000446AFF300802046BDE81040FFF7D1BED0
:1004E00000487047680A002001491820ABBEFEE7AB
:1004F000260002007047FEE700F0E4B810B500F0F7
:1005000059F8BDE81040322000F07AB910B5282023
:1005100002F0AAFC1021044800F09EFA08B1002065
:1005200010BD012010BD00000010024000B51022D7
:10053000094B85B0012120B100200092CDE90101D5
:1005400004E00220CDE90021CDE9021069461846F9
:1005500000F068F905B000BD0010024010B50C4C69
:100560001021204600F078FA0028F9D0282002F067
:100570007BFC1021204600F06FFA002806D01021E5
:10058000204600F069FA0028F9D1012010BD0000D2
:100590000010024070B5002425466006040EFFF7E7
:1005A000DDFF08B144F001046D1CEDB2082DF4D359
:1005B000204670BD3EB500200190029000F06AF820
:1005C000FFF7A4FF002852D02A4C1021204600F04B
:1005D00043FA0028F9D01021204600F03DFA002807
:1005E000F9D100240DF10405FFF7D4FF2855641C50
:1005F000E4B2052CF8D39DF804009DF805109DF891
:10060000072008449DF80610114408449DF808107E
:1006100088422AD10021102317A2084602F041F98E
:10062000102318A200215A2002F03BF91024009454
:100630009DF8062002230021622002F0FDF810231D
:1006400011A20221002002F02CF910230DA2022198
:10065000412002F026F9022300949DF80420194657
:10066000492002F0E9F801203EBD00203EBD0220F5
:100670003EBD00000010024054656D7065726174EB
:10068000757265003A00000048756D696469747997
:100690000000000010B50020FFF748FF00221021E5
:1006A000054800F0E6F9142000F0AAF8BDE8104073
:1006B0000120FFF73BBF000000100240704772B6F8
:1006C000FEE70000F8B5012600254B4C02F0FCFBCC
:1006D00003287DD02079012865D0A068401CA06047
:1006E0002069002802DC02F0EFFB207001F042FFDD
:1006F00001F01AFE2069002873DC2078012870D0F0
:1007000001F068FE6179607801F090FD60616178C8
:1007100000296BD001296BD01821A170C9B2C84241
:100720000CD5FFF7B5FDC11700EB917121F0030166
:10073000401AC0B26070012101F078FD20691028D4
:100740000ADA6069A0F11001102904D9A1780844DF
:100750001038102800D826710C2328A2002123204D
:1007600002F09FF80C270097052300213A20E26849
:1007700002F062F80097052300216220A26802F0CF
:100780005BF86571A0681421B0FBF1F0C0B2E070B5
:100790001D2801D91D20E070C0B2C0F11E0000F07C
:1007A0002FF8257092E701F019FF02F08DFBC0B21F
:1007B000207002288AD1D4E90201884200D9E06081
:1007C000A560257125613046667101F039FE01E0B2
:1007D00010E006E06179607801F028FD01F0E9FCA5
:1007E00074E7607901F02CFE20618BE7082194E723
:1007F000102192E7F8BD0000A808002048493A00FF
:1008000070B5044600F03AF90546601C02D0044871
:100810000078044400F032F9401BA042FAD370BDC6
:10082000080000202DE9F84FDFF8F8A1002201248C
:1008300003254FF00F090AF1040BAAF1040E00BFC3
:100840000B6804FA02F63340B34270D10F7907F017
:100850000307012F01D0022F16D187684FEA420803
:1008600005FA08FC27EA0C07D1F80CC00CFA08FCC2
:100870004CEA070CC0F808C04768B7430E79C6F3C6
:10088000001696403E4346600E79F643B6070AD0FE
:10089000C7684FEA420C05FA0CF6B7438E6806FAB1
:1008A0000CF63E43C6600E7906F00306022E10D108
:1008B000D60800EB8608D8F8206057074FEAD76CB7
:1008C00009FA0CF7BE430F6907FA0CF73743C8F86B
:1008D000207006684FEA420C05FA0CF7BE430F7908
:1008E00007F0030707FA0CF7374307604E6816F462
:1008F000403F1CD04C4E376847F48047376036681D
:1009000022F0030706F480460096484E07EB060CDB
:10091000DCF8086897073F0F09FA07F826EA080687
:10092000DFF80C81404503D14FF0000841E072E050
:10093000DFF80081404502D14FF0010839E0DFF8CF
:10094000F880404502D14FF0020832E0DFF8EC8039
:10095000404502D14FF003082BE0DFF8E48040452A
:1009600002D14FF0040824E0DFF8D880404502D1DE
:100970004FF005081DE0DFF8D080404502D14FF070
:10098000060816E0DFF8C480404502D14FF00708A2
:100990000FE0DFF8BC80404502D14FF0080808E0C6
:1009A000DFF8B080404502D14FF0090801E04FF078
:1009B0000A0808FA07F848EA0608CCF80888DAF8BE
:1009C00000605746D1F804C09E435FEACC2C00D5A6
:1009D0001E433E60DBF800605F46D1F804C09E43D2
:1009E0005FEA8C2C00D51E433E60DEF8006077463F
:1009F000D1F804C09E435FEA8C3C00D51E433E60A4
:100A0000084F083F3E68D1F804C09E435FEACC3CE3
:100A100000D51E433E60521C102AFFF411AFBDE802
:100A2000F88F0000083C014044380240003001408B
:100A3000000002400004024000080240000C024096
:100A4000001002400014024000180240001C024046
:100A500000200240002402400069084000D001202C
:100A60007047426921EA02030A4043EA0241816178
:100A700070470AB1816170470904FBE7014880684B
:100A80007047000008000020024881680278114485
:100A900081607047080000200B4810B5016841F4E0
:100AA00000710160016841F480610160016841F4F6
:100AB00080710160032000F06FF80F2000F006F84D
:100AC00000F024F8002010BD003C024070B50D4D30
:100AD00004464FF47A712878B1FBF0F00A490968AE
:100AE000B1FBF0F000F0CEFD48B9102C07D2002287
:100AF0002146501E00F030F800206C6070BD0120CF
:100B000070BD000008000020140000200A4808B54D
:100B1000016841F480410160006800F48040009069
:100B20000548001F016841F080510160006800F035
:100B30008050009008BD000044380240002809DBC6
:100B400000F01F02012191404009800000F1E020E7
:100B5000C0F8001170470000F0B40E4B1B680C4643
:100B6000C3F30223C3F10705042D00D90425191D81
:100B7000072901D2002300E0DB1E012606FA05F159
:100B8000491E214099409E40761E16403143F0BCDC
:100B900002F089B90CED00E0064900F00702086890
:100BA0004FF6FF03184040EA0220034A1043086052
:100BB000704700000CED00E00000FA052DE9F84355
:100BC0001748016841F0805101600068154F00F03E
:100BD0008050012600903E64FFF750FF05464FF419
:100BE0007A78114C05E000BFFFF748FF401B4045F5
:100BF0000DD86068C003F7D57E64FFF73FFF054658
:100C0000464607E0FFF73AFF401BB04202D90320F7
:100C1000BDE8F88360688003F4D50020F8E70000A1
:100C20004038024000000E42007000402DE9F84FAD
:100C300004460068DFF824A2894F8A4DC1074FF0AF
:100C400001084FF0000603D1810701D4400648D5C2
:100C5000CAF86860FFF712FF814605E0FFF70EFF54
:100C6000A0EB090002287DD828680001F6D420787E
:100C7000C1077D4805D06168227A890141EA027185
:100C800001602178890711D501686268237B920190
:100C9000C1F3027142EA036242EA017101603968FC
:100CA000E26921F01F01521E114339602178490683
:100CB00008D56168227B890141EA0261227A41EA12
:100CC00002710160CAF86880FFF7D8FE814605E02E
:100CD000FFF7D4FEA0EB0900022843D828680001E2
:100CE000F6D52068410701D400074ED5CAF87060D8
:100CF000FFF7C4FE814605E0FFF7C0FEA0EB090048
:100D000002282FD82868C0438000F5D520784107F5
:100D1000564814D501682269237D9201C1F30271FE
:100D200042EA036242EA017101603968226A6FF0A7
:100D3000FF0321F4F85103EB0222114339602178BB
:100D4000090712D501682269C1F30361920142EAE1
:100D50000161227E41EA027101603868616A20F413
:100D6000403000E051E008433860CAF87080FFF777
:100D700085FE074605E000BFFFF780FEC01B022886
:100D800043D82868C0438000F6D42078800653D525
:100D900034484030016841F0805101600068344DB2
:100DA00000F080500090286840F480702860FFF7C1
:100DB00065FE074605E000BFFFF760FEC01B022886
:100DC00023D82868C005F7D5274D143D286810F4AE
:100DD000407020D0218D01F4407181421BD02868E1
:100DE00020F440712348C0F800800660296028681C
:100DF000C00710D0FFF742FE064641F2883707E0F1
:100E0000FFF73CFE801BB84202D90320BDE8F88FF3
:100E100028688007F4D5A16A1248C1F3012208307E
:100E2000032A13D0016821F4F81101602868218D8C
:100E3000C1F30B01084328602078C00604D50E4991
:100E400094F82C00C1F8E0010020DFE702680B4BAA
:100E500022F4F81219400A430260E7E70000474213
:100E60008C38024000380240843802408838024002
:100E700000700040400E474200104742FFFCFF0F49
:100E80002DE9F0470E46050065D0DFF81481D8F84B
:100E90000000F7B200F00F00B04207D288F80070EF
:100EA000D8F8000000F00F00B04254D128683D4C43
:100EB000810712D5400703D5206840F4E050206038
:100EC0002878000703D5206840F46040206020683F
:100ED000A96820F0F000084320602878C0072DD0D2
:100EE000304968680839012812D0022813D0032835
:100EF00011D00968890700292DDA216821F0030142
:100F000001432160FFF7BAFD814641F2883A0EE0C5
:100F100009688903EFE709688901ECE7FFF7AEFD8F
:100F2000A0EB0901514502D90320BDE8F0872068F4
:100F3000696800F00C00B0EB810FEFD1D8F8001019
:100F4000404601F00F01B14207D90770006800F078
:100F50000F00B04201D00120E7E72878400705D50F
:100F60002068E96820F4E0500843206028780007F2
:100F700006D52068296920F4604040EAC10020605D
:100F800000F018F82168084AC1F30311515CC84009
:100F90000649086006480068FFF798FD0020C4E78E
:100FA000003C024008380240943000081400002041
:100FB0000C000020154810B5006810F00C02144811
:100FC00013D01449042A0FD0082A0ED10F4C241F25
:100FD0002268236802F03F025B0207D52068C0F355
:100FE0008810A0FB010106E0084610BD2168C1F38E
:100FF0008811A1FB00010023FFF784F92168C1F3E8
:101000000141491C4900B0FBF1F010BD0838024015
:101010000024F40040787D012DE9F84F04006ED0E3
:101020002078DFF84C93C007A9F104054AD009F1F4
:1010300004000168C1F38101012908D00068C0F3F0
:10104000810002280AD1D9F80000400206D528689C
:10105000800337D560680028E1D033E06068B0F5E0
:10106000803F10D0B0F5A02F286810D020F4803039
:101070002860286820F4802028606068A8B1FFF705
:10108000FDFC06460DE0286840F48030F4E740F4AB
:1010900080202860F7E700BFFFF7F0FC801B642882
:1010A00073D828688003F7D50CE0FFF7E7FC064605
:1010B00005E000BFFFF7E2FC801B6428F0D8286839
:1010C0008003F7D42078DFF8AC8280074FF0000A65
:1010D0003ED5A748001D016811F00C0F08D000682C
:1010E000C0F3810002280BD1D9F80000400207D4D8
:1010F0002868800716D5E068012800D112E033E1A6
:10110000E068B8B10120C8F80000FFF7B7FC064658
:1011100005E000BFFFF7B2FC801B0228C0D828689A
:101120008007F7D52868216920F0F80040EAC1005F
:1011300028600DE0C8F800A0FFF7A0FC064604E018
:10114000FFF79CFC801B02281FD828688007F7D473
:101150002078000722D5864F87486169703771B1C2
:1011600001210160FFF78AFC064604E0FFF786FCD8
:10117000801B022809D838688007F7D50EE0C0F830
:1011800000A0FFF77BFC064605E082E0FFF776FC57
:10119000801B02287DD838688007F7D42078400764
:1011A00068D5DFF8CCB100270BF13C0BDBF8000071
:1011B000C0000BD4DBF8001041F08051CBF80010D8
:1011C000DBF80000012700F0805000906B4E306883
:1011D000C00510D4306840F480703060FFF74EFCDA
:1011E000009005E0FFF74AFC0099401A022850D809
:1011F0003068C005F6D55E4EA0686C3601280FD069
:101200000528306810D020F001003060306820F0F0
:1012100004003060A068B8B1FFF730FC00900FE028
:10122000306840F00100F4E740F004003060F7E778
:10123000FFF724FC0099411A41F28830814266D8B8
:1012400030688007F4D50EE0FFF718FC009007E047
:10125000FFF714FC0099411A41F28830814256D8B8
:1012600030688007F4D42FB1DBF8001021F08051F2
:10127000CBF80010A069C8B33D49091D0968C1F346
:10128000810102294AD00228504607D0C8F86000E0
:1012900000E03CE0FFF7F2FB04463BE04746C8F8BD
:1012A0006000FFF7EBFB064605E000BFFFF7E6FB3B
:1012B000801B02282BD828688001F7D4D4E90701C5
:1012C0000843A16A2E4A490802EB0141626A41EAD9
:1012D0008211084394F82C1040EA0161C9F800100B
:1012E00001203866FFF7CAFB044606E03EE000BF77
:1012F000FFF7C4FB001B022809D828688001F7D536
:1013000034E000BFFFF7BAFB001B022802D903201C
:10131000BDE8F88F28688001F4D427E00128F7D0D1
:10132000D9F80000E26900F4800191421CD1226AE0
:1013300000F03F01914217D147F6C071626A014047
:10134000B1EB821F10D1A26A4FF0FF3300F440319D
:1013500003EB5202B1EB024F06D194F82C1000F0CF
:101360007060B0EB016F01D00120D1E70020CFE722
:101370000438024000004742800E4742007000409F
:101380000000FFFF10B500680B4641680D480140A2
:10139000080CD870C1F304245C7001F03F049C7009
:1013A000C1F34231197052B901F0EEFAD870587891
:1013B00001F0EAFA5870987801F0E6FA9870002087
:1013C00010BD00003FFFFF0010B50B460168896AA1
:1013D000596001680969C1F30E01996000680168EC
:1013E0000D480140C1F305401870C1F306245C703C
:1013F00001F07F049C70890DD97052B901F0C4FAD4
:101400001870587801F0C0FA5870987801F0BCFA5A
:101410009870002010BD00007F7F7F0010B5040091
:1014200002D0607F10B106E0012010BD00202077BF
:10143000204600F041F8022060772068C168C94367
:10144000C90632D5CA21416221685320486220462C
:1014500001F0AEFA20BB20688168164A1140816015
:101460002168886862681043D4E904231A43104352
:1014700088602168E068086120680169228941EA82
:1014800002410161204601F0B7FA48B921680A6CAF
:1014900022F480220A6421680A6CA3691A430A6450
:1014A0002268FF21516208B110BD0020012161773F
:1014B00010BD0000BFFF8FFF10B58CB00446302177
:1014C0006846FEF7B5FF0949206888420CD1202004
:1014D0000090C0000A906846FFF7A8FB08B1FFF72C
:1014E000EEF80349012008600CB010BD0028004050
:1014F0003C0E474270B50446007F0B46012819D0C8
:101500000126267702206077B2B19878D97840EA30
:10151000014558781978000240EA413005432168B6
:10152000CA204862216853204862204601F040FAF0
:10153000D0B122E0022070BD5878C10603D500F07A
:10154000EF000A305870D87801F027FA0204587872
:1015500001F023FA42EA0022987801F01EFA0243D1
:10156000187842EA4035DAE70748054020684560C8
:10157000204601F041FA00B966772268FF215162E6
:101580000021217770BD00003FFFFF002DE9F041F1
:101590000446007F0D46012823D04FF0010884F84F
:1015A0001C80022060772068002780684FEA406036
:1015B000D2B1002800DBEF70A878297840EA014614
:1015C0006878E978000240EA815006432168CA2021
:1015D0004862216853204862204601F0E9F9B8B119
:1015E0002CE00220BDE8F081002800DBEF702878B5
:1015F00001F0D3F90204687801F0CFF942EA002241
:10160000A87801F0CAF90243E87842EA8056DDE79B
:101610000D480640206806602068816821F480211A
:101620008160D5E90301084321688A681043886016
:10163000204601F0E1F908B984F81D802268FF21F5
:1016400051622777CEE700007F7F7F0070B50446A8
:101650000B482168C860FFF711FA05464FF47A7607
:1016600007E000BFFFF70AFA401BB04201D9032090
:1016700070BD2068C0688006F4D5002070BD0000F1
:101680005F7F010010B5401EB0F1807F01D30120C3
:1016900010BD4FF0E02460610F21601701F003FCE2
:1016A0000020A06107202061002010BD7047704716
:1016B00070B590F83C20012A32D0012480F83C40DB
:1016C000022280F83D2003685A689D6822F0700667
:1016D0000A6832435A60134B02689A4214D0B2F13E
:1016E000804F11D0104B9A420ED0104B9A420BD023
:1016F0000F4B9A4208D00F4B9A4205D00E4B9A429C
:1017000002D00E4B9A4204D1496825F08003194358
:10171000916080F83D40002180F83C10084670BD83
:10172000022070BD0000014000040040000800409D
:10173000000C00400004014000400140001800403F
:1017400010B5040003D094F83D0010B107E001206B
:1017500010BD002084F83C00204600F01FF8022055
:1017600084F83D00211D206801F076FA012084F8FC
:10177000460084F83E0084F83F0084F8400084F876
:10178000410084F8420084F8430084F8440084F85F
:10179000450084F83D00002010BD000008B5016838
:1017A0000B48B1F1804F0BD00A4A914207D1016832
:1017B00041F002010160006800F00200009008BDE5
:1017C000016841F001010160006800F00100F5E7E7
:1017D000403802400004004090F83D10012901D03B
:1017E00001207047022180F83D100168CA6842F06C
:1017F0000102CA6000681149884214D0B0F1804FDC
:1018000011D00F4988420ED00E4988420BD00E49A4
:10181000884208D00D49884205D00D49884202D03F
:101820000C49884204D1816801F00701062903D0E0
:10183000016841F001010160002070470000014093
:101840000004004000080040000C0040000401407B
:10185000004001400018004070B5044690F83C007C
:101860000025012817D0012684F83C60022084F866
:101870003D002068826822F0770222F47F42826075
:101880000868502838D00DDC20284FD005DC90B3F4
:10189000102811D14AE0022070BD302846D04028DF
:1018A0000AD13BE060282FD070280DD0B0F5805FC2
:1018B00003D0B0F5005F12D0012584F83D60002010
:1018C00084F83C00284670BDCB68D1E9012120682E
:1018D00001F02EFA2068816841F0770109E0CB68B9
:1018E000D1E90121206801F023FA2068816841F4E0
:1018F00080418160E1E719E0CA684968206801F029
:1019000029FA5021206806E0CA684968206801F079
:1019100032FA6021206801F015FACEE7CA684968FA
:10192000206801F017FA40212068F4E72268014698
:101930001046F0E770472DE9F04104460068C6689C
:1019400005694FF00007A90713D5B10711D5F91E96
:10195000016101202077206880698007204602D03D
:10196000FFF7E8FF04E000F07EF8204600F07CF886
:101970002777680716D5700714D521686FF0040023
:101980000861022020772068806910F4407F20469B
:1019900002D0FFF7CFFF04E000F065F8204600F02A
:1019A00063F82777280715D5300713D521686FF01E
:1019B00008000861042020772068C069800720465D
:1019C00002D0FFF7B7FF04E000F04DF8204600F02A
:1019D0004BF82777E80616D5F00614D521686FF086
:1019E00010000861082020772068C06910F4407F4B
:1019F000204602D0FFF79EFF04E000F034F82046B6
:101A000000F032F82777E80708D0F00706D0216801
:101A10006FF001000861204600F028F8280608D57C
:101A2000300606D521686FF0800008612046FFF778
:101A30003DFE680608D5700606D521686FF04000A7
:101A40000861204600F034F8A8060AD5B00608D58B
:101A500021686FF0200008612046BDE8F041FFF7E3
:101A600026BEBDE8F0817047704700000068B0F105
:101A7000804F16D10B494868401C4860642805D344
:101A80000020486001210848FEF7EBBF07480A68BC
:101A90001AB1521E0A60002200E001220421FEF762
:101AA000E8BF704700000020000402400010024020
:101AB0007047FEE710B50B4C012220212046FEF7AF
:101AC000D8FF012240212046FEF7D3FF002240210B
:101AD0002046FEF7CEFF20460022BDE81040202120
:101AE000FEF7C7BF0010024010B5094C01222021AB
:101AF0002046FEF7BEFF002240212046FEF7B9FF38
:101B000020460122BDE810404021FEF7B2BF000090
:101B10000010024010B5064C012220212046FEF79D
:101B2000A8FF20460022BDE810402021FEF7A1BFFB
:101B30000010024070B5124E0446002220213046AB
:101B4000FEF797FF5FF0000504F08000802815D0B5
:101B5000002240213046FEF78CFF6006040E012271
:101B600020213046FEF785FF002220213046FEF777
:101B700080FF6D1CEDB2082DE6D370BD0122E8E7B1
:101B80000010024010B50446FFF794FF7820FFF7DD
:101B9000D1FFFFF7BFFF0020FFF7CCFFFFF7BAFF31
:101BA0002046FFF7C7FFFFF7B5FFBDE81040FFF77E
:101BB0009BBF10B50446FFF77DFF7820FFF7BAFF03
:101BC000FFF7A8FF4020FFF7B5FFFFF7A3FF204670
:101BD000FFF7B0FFFFF79EFFBDE81040FFF784BF9F
:101BE00008B500F01FFF23480021009003231422B2
:101BF000084600F0FBFA1F480223AE300090242272
:101C00000021142000F0F2FA1A48022388300090D4
:101C100080220021702000F0E9FA164808233C30A9
:101C2000009014220621042000F0E0FA12480090EF
:101C300006231C2204210C2000F0D8FA0F48009043
:101C4000082358220221282000F0D0FA0A4806234F
:101C50002630009073220421632000F0C7FA054863
:101C60000823623000907B2206216B2000F0BEFA30
:101C700008BD0000160600204A010020F6040020DE
:101C800008B50021102311A2084600F00AFE102317
:101C900011A20221002000F004FE102312A2042150
:101CA000002000F0FEFD15480090082314220621B4
:101CB000042000F09BFA11480823263000907B2274
:101CC00006216B2000F092FA08BD0000417574688F
:101CD0006F723A3132330000446174653A32303207
:101CE000342F312F310000004C61623A204D756C69
:101CF00074692D6C6576656C00000000520600204A
:101D000008B50021102311A2084600F0CAFD1023D7
:101D100011A20221002000F0C4FD102312A2042110
:101D2000002000F0BEFD1348009008231422062175
:101D3000042000F05BFA0F480823263000907B2235
:101D400006216B2000F052FA08BD0000417574684E
:101D50006F723A3132330000446174653A32303286
:101D6000342F312F310000004C61623A2031323380
:101D700000000000520600202DE9F047304CDFF84B
:101D8000C490314F314D01264FF4005808B16670B0
:101D900001E06078A0B108212846FEF75DFEB0B1F1
:101DA00004212846FEF758FE88B141464846FEF712
:101DB00053FE60B101213846FEF74EFE012806D0E1
:101DC00008212846FEF748FE012824D035E00A20E5
:101DD000FEF716FD0020607008212846FEF73CFE45
:101DE00080B101213846FEF737FE01280DD00421CD
:101DF0002846FEF731FE50B141464846FEF72CFE1C
:101E000038B11AE00120BDE8F0870420FBE702208A
:101E1000F9E70320F7E704212846FEF71DFE012815
:101E20000BD141464846FEF717FE012805D1012196
:101E30003846FEF711FE00B966700020E3E70000A7
:101E4000180000200008024000000240001C024070
:101E500010B50021102308A2084600F022FD10232F
:101E60000AA20221002000F01CFD0022BDE8104063
:101E700002210A48FEF7FDBD5065726970686572FF
:101E8000616C733A204C69676874730053746174B1
:101E900075733A204F70656E000000000004024028
:101EA0002DE9F04186B014216846FEF7C1FA3748A3
:101EB0000025016841F010010160016801F0100186
:101EC0000591016841F004010160016801F004011D
:101ED0000591016841F080010160016801F0800115
:101EE0000591016841F001010160016801F0010103
:101EF0000591016841F0020101600068244F00F083
:101F000002000590012204213846FEF7B2FD0022AE
:101F100070213846FEF7ADFDDFF8788001220321FD
:101F20004046FEF7A6FD01240420CDE90004022668
:101F3000CDE9024669463846FEF774FC70208DE80C
:101F4000710069463846FEF76DFC6003CDE9000577
:101F5000694602941048FEF765FC8DE870006946FA
:101F60000E48FEF75FFC0C20CDE90005694602949F
:101F70000B48FEF757FC03208DE871006946404688
:101F8000FEF750FC06B0BDE8F0810000303802409A
:101F9000001002400004024000080240000002401D
:101FA000001C024030B587B014216846FEF740FAA5
:101FB0001D4800241B490594C0E900147F2181605D
:101FC000FF21C0E9031444618461FFF727FA08B1D7
:101FD000FEF775FB0C258DF8005020208DF80100D0
:101FE00038208DF802000394002269460E480494BC
:101FF000FFF7CCFA08B1FEF762FB07208DF814005A
:1020000012208DF815008DF816508DF8174000221B
:1020100005A90548FFF76EFA002801D0FEF74FFB2F
:1020200007B030BD00280040C008002010B586B0C1
:1020300000241748009401940294039404944FF0F0
:102040008041059401605921C0E9011441F28831B1
:10205000C0E903148461FFF773FB08B1FEF72FFB9F
:102060004FF48050009069460948FFF7F5FB08B12E
:10207000FEF725FB049404A905480594FFF718FB17
:1020800008B1FEF71CFB0248FFF7A6FB06B010BD27
:10209000E008002010B586B0002417480094019491
:1020A0000294039404941349059401605921C0E9F2
:1020B00001144FF6FF71C0E9031480218161FFF71D
:1020C0003FFB08B1FEF7FBFA4FF4805000906946E1
:1020D0000948FFF7C1FB08B1FEF7F1FA049404A91F
:1020E00005480594FFF7E4FA002801D0FEF7E7FA67
:1020F00006B010BD0004004028090020FEE70000E3
:102100002DE9F0410120FFF737FE284C1926264F14
:1021100004F5E26501280BD12078062808D000EBF1
:10212000400005EB8000407820703E6000F041F8F0
:102130000120FFF721FE04280BD12078062808D0C3
:1021400000EB400005EB8000807820703E6000F0DE
:1021500030F80120FFF710FE02280BD12078062866
:1021600008D000EB400005EB8000C07820703E6096
:1021700000F01FF80120FFF7FFFD032809D12078A8
:1021800000EB400005EB8000007920703E6000F01D
:1021900010F8207800EB400005EB80008068A0601C
:1021A000BDE8F041004700000000002018000020BA
:1021B000FEE770B50024002104F1B00000F08CFBB4
:1021C0000021084600F088FB0021102000F084FB6D
:1021D00000250121002000F07FFB6D1CEDB2802D59
:1021E000F7D3641CE4B2082CE5D370BD2DE9F047A9
:1021F00098461746824600260C46DDF8209011E0EE
:102200002146504600F0BEFA554607E019F8060090
:102210000121761C00F060FB6D1CEDB2BD42F5D3D0
:10222000641CE4B24445EBD3BDE8F0872DE9F05FD0
:1022300005464FF000093A484FF005084F4601297E
:1022400007D085B1012D10D0022D10D0032D0ED056
:102250000EE08021016142460621002000F0E9FEE7
:102260008020BDE8F09F082702E0102700E0182733
:1022700000248246DAF81000002805DAC0F10009CF
:10228000A01DC1B2002002E0A11DC9B2C0B200F081
:1022900079FAFFF70FFC7820FFF74CFCFFF73AFCC8
:1022A0004020FFF747FCFFF735FC09F0FF06DFF899
:1022B00074B015E0DAF8100030447F2812DC04FB1B
:1022C00007601DB3012D24D0022D25D015496031A2
:1022D00011F80000FFF72EFCFFF71CFC761CF6B28D
:1022E000BE42E7DBFFF700FC641CE4B2022CC1D362
:1022F000DAF81000544638444246062100F099FEB0
:102300002169A1EB080020614044AAE71BF8000006
:10231000E0E704491031DBE702493031D8E700003B
:1023200090080020E93C00082DE9F047274C0326DF
:102330000025A0681827183010F1030F09DC802051
:10234000A060FDF7A5FF032190FBF1F201FB120055
:102350002070A068002805DA45422078401CC1B2F0
:10236000002003E02178C0B2491CC9B200F00AFA8B
:10237000FFF7A0FB7820FFF7DDFBFFF7CBFB40204A
:10238000FFF7D8FBFFF7C6FBA046DFF84490BC1967
:1023900010E000BFD8F8080028447F280CDCBD42BC
:1023A00002DA19F8050000E00020FFF7C3FBFFF791
:1023B000B1FB6D1CAC42EDDCFFF796FBD8F80810C2
:1023C000891BC8F80810BDE8F087000090080020BD
:1023D000113B00082DE9F041174E184F7078401C52
:1023E00000F0010070700024A01DC1B2102000F0A8
:1023F000C9F9FFF75FFB7820FFF79CFBFFF78AFB2B
:102400004020FFF797FBFFF785FB0025717805EB70
:10241000041007EB4111085CFFF78CFBFFF77AFB18
:102420006D1CEDB2102DF1D3FFF75EFB641CE4B21E
:10243000022CD9D3BDE8F08190080020293B000888
:102440002DE9FE4346A300260ECB8DE80E0008239F
:10245000464D3146012808D02846EF7842698078F9
:102460006C4647B1012F0CD014E06961E970AB7084
:102470000020BDE8FE83235C401E1A446A61A870F8
:1024800008E0245C401C121BC0B26A61A8700828D6
:1024900000D9AB7068691F2804DB0120E8701F2099
:1024A000686110E0002802DCE97069610EE007282D
:1024B0000CDD0F2801DC012608E0172801DC0226CC
:1024C00004E01F2801DC032600E00426DFF8A080DA
:1024D0000024C6F1050900BF09EB0400C1B21020B9
:1024E00000F050F9FFF7E6FA7820FFF723FBFFF73B
:1024F00011FB4020FFF71EFBFFF70CFB5FF000070E
:10250000686907EB0411C21700EB527222F0070250
:10251000801A00EB400208EB0210405CFFF70AFB58
:10252000FFF7F8FA7F1CFFB2102FE9D3FFF7DCFAB0
:10253000641CE4B2032CCFD3E87828B91022C6F18A
:102540000801104600F075FDE878012805D1102239
:10255000C6F10401104600F06CFD686989E70000CF
:102560000101030304040506070000009008002091
:10257000693B00082DE9F041052640F25527072167
:10258000002000F0FFF8FFF795FA7820FFF7D2FA65
:10259000FFF7C0FA4020FFF7CDFAFFF7BBFA0D4D69
:1025A000DFF83480002468682044B0FBF7F107FBB3
:1025B000110118F80100FFF7BDFAFFF7ABFA641C30
:1025C000E4B2802CEFD3FFF78FFA6868304468607C
:1025D000BDE8F08190080020BC3800082DE9F041EA
:1025E0000026184F02242146342000F0CBF8FFF7D4
:1025F00061FA7820FFF79EFAFFF78CFA4020FFF788
:1026000099FAFFF787FA0025B85D761CFFF792FA72
:10261000FFF780FA6D1CEDB2182DF5D3FFF764FAC1
:10262000641CE4B2052CDED3102307A203210A2088
:1026300000F037F9BDE8F0411023032104A2562031
:1026400000F02FB9793D000847414D4500000000DA
:102650004F5645520000000070B506460024002188
:1026600004F1B00000F038F90021084600F034F918
:102670000021102000F030F900250121304600F043
:102680002BF96D1CEDB2802DF7D3641CE4B2082C3D
:10269000E5D370BD10B56420FEF7B2F80021AE207E
:1026A00000F01AF90021084600F016F90021102068
:1026B00000F012F90021402000F00EF90021B020B6
:1026C00000F00AF90021812000F006F90021FF2026
:1026D00000F002F90021A12000F0FEF80021A62060
:1026E00000F0FAF80021A82000F0F6F800213F20C1
:1026F00000F0F2F80021C82000F0EEF80021D3200D
:1027000000F0EAF80021084600F0E6F80021D520A4
:1027100000F0E2F80021802000F0DEF80021D8204F
:1027200000F0DAF80021052000F0D6F80021D920C9
:1027300000F0D2F80021F12000F0CEF80021DA20DC
:1027400000F0CAF80021122000F0C6F80021DB20BA
:1027500000F0C2F80021302000F0BEF800218D20EA
:1027600000F0BAF80021142000F0B6F80021AF20E4
:1027700000F0B2F86420FEF743F8BDE810400020F6
:10278000FFF76ABF10B50A460446002102F1B00007
:1027900000F0A2F8102040EA1410002100F09CF88C
:1027A00004F00F00BDE81040002100F095B80000D3
:1027B0002DE9F041203A00240D468046D6B27F280C
:1027C00003D900208D1C8046EDB2102B294610D075
:1027D000FFF7D8FF164906EB460001EB4005012143
:1027E000285D00F079F8641CE4B2062CF7D3BDE84C
:1027F000F081FFF7C7FF0F4F04EB06100121385C93
:1028000000F06AF8641CE4B2082CF5D36D1CE9B240
:102810004046FFF7B7FF002404EB061038440121BF
:10282000007A00F059F8641CE4B2082CF4D3DEE717
:10283000A4300008CC3200082DE9F05F0026DDF856
:1028400028901D4692468B46804634464FEA5907EB
:1028500023E0281B401EC1B20A2000F00EFCBAFB88
:10286000F0F00A21B0FBF1F201FB120026B9691E5B
:102870008C4201DA38B101263030C2B207FB048045
:10288000C0B24B4604E007FB0480C0B24B46302286
:102890005946FFF78DFF641CE4B2AC42D9D3BDE8C2
:1028A000F09F2DE9F041984617460E460446002554
:1028B0000DE0434631462046FFF77AFF0834E4B284
:1028C000782C02D90024B61CF6B26D1CEDB27A5DEC
:1028D000002AEED1BDE8F081C0B209B1FFF769B9B5
:1028E000FFF750B908B500F09DF82348002100908B
:1028F000032314220846FFF779FC1F480223AE3059
:102900000090242200211420FFF770FC1A480223B3
:1029100088300090802200217020FFF767FC164865
:1029200008233C300090142206210420FFF75EFCAF
:102930001248009006231C2204210C20FFF756FCAD
:102940000F4800900823582202212820FFF74EFC50
:102950000A48062326300090732204216320FFF7E3
:1029600045FC05480823623000907B2206216B203D
:10297000FFF73CFC08BD0000160600204A010020BD
:10298000B602002070477047010901EB810100F099
:102990000F0000EB4100C0B27047002102E00A388E
:1029A000C0B2491C0A28FAD2090740EA11607047F0
:1029B0002DE9F041044600680025C168490618D495
:1029C000C16841F08001C160FEF758F806464FF437
:1029D0007A78042707E000BFFEF750F8801B4045D7
:1029E00001D9677701252068C068400601D4002D11
:1029F000F2D02846BDE8F08170B504460068002595
:102A0000C16821F08001C16020688068800606D41A
:102A10002046FEF71BFE10B10420607701252846F2
:102A200070BD000038B5002216491748FEF7CCFCEF
:102A3000002216491448FEF7A5FC124D10240094FC
:102A40002A78022300212820FFF7F6FE102310A287
:102A500000213920FFF725FF00946A780223002126
:102A60004220FFF7E9FE102309A200215320FFF7BF
:102A700018FF0094AA78022300215D20FFF7DCFEF6
:102A800038BD000070090020C00800201A00002096
:102A90003A0000007047000010B50021102308A282
:102AA0000846FFF7FEFE10230AA202210020FFF7CE
:102AB000F8FE0122BDE8104002210A48FDF7D9BF07
:102AC0005065726970686572616C733A204C696711
:102AD000687473005374617475733A20436C6F7338
:102AE000656400000004024008B5FFF79BFF23481F
:102AF00000210090032314220846FFF777FB1F48AC
:102B00000223AE300090242200211420FFF76EFB38
:102B10001A48022388300090802200217020FFF79D
:102B200065FB164808233C3000901422062104203F
:102B3000FFF75CFB1248009006231C2204210C20A6
:102B4000FFF754FB0F480090082358220221282049
:102B5000FFF74CFB0A48062326300090732204211D
:102B60006320FFF743FB05480823623000907B2277
:102B700006216B20FFF73AFB08BD00001606002077
:102B80004A010020D6030020FDF77EBF30B593B088
:102B900030216846FDF74CFC14210CA8FDF748FCD9
:102BA00021480024016841F080510160006800F074
:102BB000805011901D48016821F4404141F480414A
:102BC00001600068022500F440401190062000904A
:102BD0000120029003901020049006950820CDE972
:102BE00007405A20CDE9090504200B906846FEF7FE
:102BF00013FA08B172B6FEE7FDF7E0FF08B172B64E
:102C0000FEE70F20CDE90C054FF48050CDE90E40D2
:102C100002210CA81094FEF733F9002801D072B6F7
:102C2000FEE713B030BD00004038024000700040A5
:102C30000248016841F470010160704788ED00E0CE
:102C40000148FEF778BE0000E00800200148FEF7CA
:102C500072BE000028090020F0B50268294C2A4DF8
:102C60002A4E2B4F2B4B4FF0804CA04209D0604591
:102C700007D0A84205D0B04203D0B84201D0984254
:102C800004D122F0700E4A6842EA0E02A0421BD024
:102C9000604519D0A84217D0B04215D0B84213D021
:102CA000984211D01C4DA8420ED01C4DA8420BD00A
:102CB0001B4DA84208D01B4DA84205D01A4DA84272
:102CC00002D01A4DA84203D122F44075CA682A43A3
:102CD0004D6922F080022A4302608A68C2620A6853
:102CE0008262A04201D0984201D1096901630121A9
:102CF00041610169C90703D0016921F00101016146
:102D0000F0BD000000000140000400400008004049
:102D1000000C00400004014000400140004401401C
:102D20000048014000180040001C00400020004006
:102D300010B5846842EA032224F47F440A43224304
:102D4000826010BD826822F070020A4342F00701DF
:102D50008160704710B5036A046A24F001040462BC
:102D6000846924F0F00444EA021423F00A020A43BE
:102D70008461026210BD10B5036A046A24F0100475
:102D80000462846923F0A00324F4704444EA02320C
:102D900043EA01118261016210BD000008B5FFF72E
:102DA00041FE234800210090032314220846FFF728
:102DB0001DFA1F480223AE30009024220021142067
:102DC000FFF714FA1A48022388300090802200216D
:102DD0007020FFF70BFA164808233C3000901422AD
:102DE00006210420FFF702FA1248009006231C2255
:102DF00004210C20FFF7FAF90E4808234C3000900C
:102E0000582202212820FFF7F1F90A48062326302C
:102E10000090732204216320FFF7E8F90448082397
:102E2000623000907B2206216B20FFF7DFF908BD9E
:102E3000160600204A01002008B5FDF75FFB09488F
:102E400000900823142206210420FFF7CFF905483B
:102E50000823263000907B2206216B20FFF7C6F95D
:102E600008BD0000520600200D4900220B685A627E
:102E70000A68136843F00103136009684A6A8242D2
:102E8000FCD3086A41F21112104207D1086A92106D
:102E9000104203D1086820F001000860704700006C
:102EA00028090020FEE70907090E002804DB00F1CD
:102EB000E02080F80014704700F00F0000F1E020DF
:102EC00080F8141D7047000070B51A4C042120468C
:102ED000FDF7C2FD38B90A20FDF792FC0421204617
:102EE000FDF7BAFD28B108212046FDF7B5FD10B168
:102EF00009E0022070BD0A20FDF782FC082120466F
:102F0000FDF7AAFD40B10C4D4FF400542146284670
:102F1000FDF7A2FD10B109E0012070BD0A20FDF708
:102F20006FFC21462846FDF797FD08B1002070BDD3
:102F3000032070BD001C02400008024008B5FFF7E6
:102F400071FD234800210090032314220846FFF757
:102F50004DF91F480223AE30009024220021142096
:102F6000FFF744F91A48022388300090802200219C
:102F70007020FFF73BF9164808233C3000901422DC
:102F800006210420FFF732F91248009006231C2284
:102F900004210C20FFF72AF90F480090082358223B
:102FA00002212820FFF722F90A4806232630009044
:102FB000732204216320FFF719F9054808236230C2
:102FC00000907B2206216B20FFF710F908BD00005E
:102FD000160600204A01002024000020FDF75CFDB9
:102FE000FFF7D4FDFEF75CFFFFF720F8FEF7DAFFEE
:102FF000FFF750F8002201211C20FDF7ADFD1C2039
:10300000FDF79CFD002211460520FDF7A5FD0520DA
:10301000FDF794FD002211461D20FDF79DFD1D20AA
:10302000FDF78CFDFFF736FBFFF7C3F8FFF768F8F5
:10303000FCE770B505461646C9B2C0B2FFF7A2FB61
:10304000FEF738FD7820FEF775FDFEF763FD4020A2
:10305000FEF770FDFEF75EFD002408E028198028C9
:1030600007D80020FEF766FDFEF754FD641CB4424D
:10307000F4D3BDE87040FEF737BD0246012000E002
:103080005043491EC9B2FBD270474FF04070E1EE89
:10309000100A704700000000000000000102030455
:1030A000060708090000000000000000002F0000D3
:1030B00000000700070000147F147F1400242A7FFB
:1030C0002A1200626408132300364955225000007A
:1030D0000503000000001C224100000041221C00EA
:1030E0000014083E08140008083E0808000000A06C
:1030F0006000000808080808000060600000002068
:1031000010080402003E5149453E0000427F400045
:10311000004261514946002141454B3100181412CB
:103120007F10002745454539003C4A494930000198
:103130007109050300364949493600064949291EE7
:103140000000363600000000563600000008142249
:103150004100001414141414000041221408000249
:103160000151090600324959513E007C1211127C6E
:10317000007F49494936003E41414122007F41419B
:10318000221C007F49494941007F09090901003E8D
:103190004149497A007F0808087F0000417F4100CB
:1031A000002040413F01007F08142241007F404041
:1031B0004040007F020C027F007F0408107F003E29
:1031C0004141413E007F09090906003E4151215E0F
:1031D000007F091929460046494949310001017F0C
:1031E0000101003F4040403F001F2040201F003FA2
:1031F0004038403F00631408146300070870080754
:1032000000615149454300007F41410000552A5566
:103210002A55000041417F000004020102040040E1
:103220004040404000000102040000205454547803
:10323000007F484444380038444444200038444423
:10324000487F00385454541800087E0901020018C1
:10325000A4A4A47C007F080404780000447D4000FE
:10326000004080847D00007F102844000000417FE2
:103270004000007C04180478007C080404780038BE
:103280004444443800FC242424180018242418FC46
:10329000007C0804040800485454542000043F44AF
:1032A0004020003C4040207C001C2040201C003C72
:1032B0004030403C004428102844001CA0A0A07CC2
:1032C000004464544C4414141414141400000000FA
:1032D000000000000000000000000000000000F8F6
:1032E00000000000000000333000000000100C0659
:1032F000100C0600000000000000000040C07840F4
:10330000C0784000043F04043F040400007088FCBF
:1033100008300000001820FF211E0000F008F00017
:10332000E018000000211C031E211E0000F0088888
:10333000700000001E2123241927211010160E00F2
:10334000000000000000000000000000000000E09D
:1033500018040200000000071820400000020418B2
:10336000E00000000040201807000000404080F00E
:10337000804040000202010F01020200000000F044
:10338000000000000101011F010101000000000018
:103390000000000080B0700000000000000000008D
:1033A0000000000000010101010101010000000016
:1033B00000000000003030000000000000000000AD
:1033C00080601804006018060100000000E010088A
:1033D0000810E000000F102020100F00001010F85F
:1033E000000000000020203F20200000007008089E
:1033F000088870000030282422213000003008881E
:10340000884830000018202020110E000000C02045
:1034100010F8000000070424243F240000F8088866
:10342000880808000019212020110E0000E01088F3
:1034300088180000000F112020110E000038080825
:10344000C83808000000003F000000000070880835
:1034500008887000001C222121221C0000E01008B6
:103460000810E0000000312222110F00000000C00F
:10347000C0000000000000303000000000000080AC
:10348000000000000000806000000000000080409C
:1034900020100800000102040810200040404040B5
:1034A0004040400004040404040404000008102008
:1034B000408000000020100804020100007048084D
:1034C0000808F0000000003036010000C030C828B5
:1034D000E810E0000718272423140B000000C03870
:1034E000E0000000203C23020227382008F88888EA
:1034F00088700000203F202020110E00C0300808F6
:1035000008083800071820202010080008F80808CC
:103510000810E000203F202020100F0008F88888C5
:10352000E8081000203F20202320180008F8888891
:10353000E8081000203F200003000000C030080809
:103540000838000007182020221E020008F8080092
:103550000008F808203F210101213F20000808F859
:10356000080800000020203F20200000000008087C
:10357000F8080800C08080807F00000008F888C03C
:1035800028180800203F20012638200008F80800ED
:1035900000000000203F20202020300008F8F80024
:1035A000F8F80800203F003F003F200008F830C036
:1035B0000008F808203F200007183F00E010080826
:1035C0000810E0000F10202020100F0008F8080855
:1035D0000808F000203F210101010000E010080868
:1035E0000810E0000F18242438504F0008F888888D
:1035F00088887000203F2000030C3020007088086D
:10360000080838000038202121221C00180808F87A
:10361000080818000000203F2000000008F80800FB
:103620000008F808001F202020201F0008788800CC
:1036300000C83808000007380E010000F80800F83C
:103640000008F800033C0700073C030008186880E6
:103650008068180820302C03032C30200838C8005C
:10366000C83808000000203F2000000010080808AB
:10367000C83808002038262120201800000000FE4D
:10368000020202000000007F40404000000C30C0F9
:1036900000000000000000010638C0000002020225
:1036A000FE000000004040407F00000000000402D7
:1036B0000202040000000000000000000000000002
:1036C00000000000808080808080808000020204F2
:1036D00000000000000000000000000000008080EA
:1036E000808000000019242222223F2008F8008058
:1036F00080000000003F112020110E00000000801B
:1037000080800000000E11202020110000000080A9
:103710008088F800000E112020103F2000008080DB
:1037200080800000001F222222221300008080F0EF
:10373000888888180020203F20200000000080801A
:1037400080808000006B94949493600008F800805F
:1037500080800000203F210000203F2000809898BA
:10376000000000000020203F20200000000000801A
:103770009898000000C08080807F000008F800005A
:1037800080808000203F24022D302000000808F8AF
:10379000000000000020203F20200000808080806A
:1037A00080808000203F20003F20003F80800080FC
:1037B00080800000203F210000203F20000080800A
:1037C00080800000001F202020201F0080800080BB
:1037D0008000000080FFA12020110E00000000806A
:1037E00080808000000E112020A0FF80808080005B
:1037F0008080800020203F21200001000000808088
:10380000808080000033242424241900008080E07C
:10381000808000000000001F202000008080000049
:1038200000808000001F202020103F20808080002A
:103830000080808000010E3008060100808000803A
:10384000008080800F300C030C300F00008080005F
:10385000808080000020312E0E312000808080008A
:103860000080808080818E7018060100008080803A
:10387000808080000021302C2221300000000000D8
:10388000807C020200000000003F40400000000079
:10389000FF00000000000000FF0000000002027CAA
:1038A000800000000040403F0000000000060101D1
:1038B000020204040000000000000000C8C8C8287C
:1038C000282808C8C80808080808080808080808B8
:1038D00008480808C8C8C808383808080808084848
:1038E0004808080808080828084848480808082818
:1038F000280808080808080808C808080808080868
:103900000848080808080808383808080808080897
:103910000808080808480828280848480808080827
:103920000808080808080808280808080838380897
:103930006808080808080828080808080808084847
:1039400008484808080808080848480808080808F7
:103950000808680808080808080808080828080867
:1039600008080808C8C808090808080808383808F6
:103970000828080908080808080808282808080866
:10398000090808080808080808686808C9C8C808B5
:103990000808C808080808282908080808080808A6
:1039A0000808080848490808080808080808080816
:1039B00008686808082828080808080808086868C7
:1039C0000808C8C808080808080808082828082897
:1039D0000808080808282828080848083838080867
:1039E0000808C80808080808C8C8C828282808C837
:1039F000C808080808080808080808084848080807
:103A0000C8C8C80838380808080808484808080816
:103A100008082828084848480808082828080808E6
:103A20000808080808C80808080C06024242060CE4
:103A3000080808083838081818101010101018183E
:103A400008480828280848480808080808080808F6
:103A50000808082828080808083838686808080886
:103A600008080828080808080808084808484808F6
:103A70000808080808484808080808080868680886
:103A8000080808080808080828280808080808C8B6
:103A9000C8C8080808080808283838080828080886
:103AA0000808080808082828280808080808080836
:103AB0000808080808686808C8C8C8080808C808C6
:103AC0000808082828080808080C04060202060C42
:103AD0004C480808080C04060202060C0C6868082A
:103AE0002828280808080808086868680808C8C856
:103AF00008080808080808082828282808080808C6
:103B00000828282808084828383808080808C80855
:103B10000880C0E070B0B0B098888E8383838181C4
:103B2000938E8C888898B0F0C0E08000000080C040
:103B3000E0FEFFFDBFAF2F2F0E03070F1EFFBF1FBD
:103B40001F3F2F070001000000E08000000080C040
:103B5000E0FEFFFDBFAF2F2F0E03070F1E3F7F5F5D
:103B60003FFF8F0700010000000000000000000080
:103B7000000000000000000000E08000000080C0A5
:103B8000C0FEFFFDBFAF2F2F0E03070F1FFFBF1F8C
:103B90003FFF8F0700010000000000000000000050
:103BA000000080808080808000F0C0808080C0E045
:103BB000E0FFFFFE5FD71717070103070F7F5F0FB7
:103BC0001F7F47030000000000000000000000000D
:103BD0000080C040C0C0C0C080F8E0C0C0C0E0F0FD
:103BE000F0FFFFFF2F6B0B0B03000103073F2F07B5
:103BF0000F3F230100000000000000000000000053
:103C000000C0E0A0E0E0E0E0C07CF0E0E0E0F0F840
:103C1000F8FFFFFF1735050501000001031F17031B
:103C2000071F11000000000000000000000000005D
:103C300000E0F0D0F0F0F0F0E03E78F0F0F0F8FCCA
:103C4000FCFFFF7F0B1A020200000000010F0B01B6
:103C5000030F08000000000000000000000000004A
:103C600000F0F8E8F8787878701F3C78F8F8FCFEF7
:103C7000FEFF7F3F050D0101000000000007050069
:103C800001070400000000000080000000000000A8
:103C900000F8FCF4FCBCBCBC380F1E3C7CFCFE7F76
:103CA000FFFF3F1F020600000000000000030200AB
:103CB000000302000000000000C0000000000080BF
:103CC00080FCFEFA7E5E5E5E1C070F1E3EFE7F3F9E
:103CD0007FFF1F0F01030000000000000001010032
:103CE000000101000000000000F0F000FFFF00F004
:103CF000F0030786FFFF060301F0E000FFFE80FCF3
:103D000000007CC0FEFF0080FC030706FFFF0110DF
:103D100090909000FFFF030301F0E000FFFE80FCA5
:103D200000FCFE00FFFF00F8F000FE80FEFFFE78C2
:103D3000FC131706FFFF011010133704FFFF080FD5
:103D400017101001FFFF031311F0E000FFFE00F059
:103D500000C000FFFE603C8000007CC0FEFF00F061
:103D6000F8434786FFFF26A3A02704FFFF0008FFB4
:103D7000882F0000FFFF062321FCFFFFFFFFFF3F0E
:103D80003F3F3F0F1F3FFFFFFF3F3FFFFFFFFFFF93
:103D9000FCFFFFFFFFFF00007E7E7E787C7E7F7F42
:103DA0007F7E0000FFFFFFFFFF3FFFFFFFFFFFFCE5
:103DB000FCFCFCFCFCFCFCFCFCFCFCFFFFFFFFFF34
:103DC0003F0000000000000000E0F0303030300024
:103DD00000F0F0C0C0F0F00000F0F0B0B070600093
:103DE00000E0F03030F0E00000F0F030F0F030F0C3
:103DF000E000E0E090909090900000000000000053
:103E000000000000000000000000000000000000B2
:103E100000808000000000000000000000000000A2
:103E20000000000000000000000000000000000092
:103E30000000000000000000000000000000000082
:103E4000000000000000000000F3F73636F6E60040
:103E5000F0F707C1C13737F0C007C7E0303737E0A8
:103E6000C0030706F6F7B3B0B0F7E700F7F70007AF
:103E7000F7F003E3F43434F4E40000000000000041
:103E8000000000000000000010100C0414141211B7
:103E900011111011121212141C1000000000000069
:103EA0000000000000000000000000000000000012
:103EB0000000000000000000000000000000000002
:103EC0000000000000000000000F0F0C0C0F0700A6
:103ED0000F0F000F0F00000F0F0003070C0C0C0753
:103EE000030000000F0F0101010E0E00070F0C0C64
:103EF0000707000F0F00000F0F0000000000000078
:103F000000000000000000000000000000000000B1
:103F100000000000000000000000000000000000A1
:103F200000000000000080C060A0A0A09088888CE5
:103F3000889090B0A0C08000000000000000000049
:103F400000000000000000000000000000004040F1
:103F5000004040404040404040400000F0FCFC9C9D
:103F60009CFCFCFCFCFCFCFCFCFCFCF0F0000000FD
:103F70000000000000000000000000000000000041
:103F80000000000000000000000000000000000031
:103F900000008000000000000000000000000000A1
:103FA0000000000000000000000000000000000011
:103FB0000080000000000000000000000000000081
:103FC0000000000000000000000080000008000069
:103FD000080808080808080800008080FFFFFFFFA5
:103FE000FFFF7F7F4F4F4F4F4F4F0F0F0F000000CE
:103FF00000000000000000000000000000000000C1
:1040000000000000000000000000000080800000B0
:1040100000FFFFFFFF000080800000000000FEFEA8
:10402000FE0000F0E00000000000F0F8F00000FFEB
:10403000FFFFFF0000808080000000000000000003
:1040400000000000000000000000FFF8F8E0E08041
:104050008080C0E0F8F8F8FEFEFEFFFFFFFFFFFFE4
:10406000FFFF1808383800000000000000000000C2
:104070000000000000000000000000000000000040
:10408000000000000000000000000000FFFF010031
:1040900000FFFFFFFF0000FFFF00FCFE0400FFFF2A
:1040A000FF0C0C8F8300F0F000809F3F7F7070FF4B
:1040B000FFFFFF000000FFFF000000000000000005
:1040C0000000000000000000000003070F1F1F7F1A
:1040D0007FFFFFFFFFFFFFFFFFFFFFFFFF7F7F1F50
:1040E00017070000000000000000000000000000B2
:1040F00000000000000000000000000000000000C0
:10410000000000000000000000000000010307079D
:1041100007FFFFFFFF030301000003070E0CFFFF73
:10412000FF00001F3F20FFFF201F0F00000000FFC7
:10413000FFFFFF0303030100000000000000000078
:104140000082828202022222222202020282820053
:10415000000001FF9F9F070701010707FF80800004
:104160000002020202C20202020202828282820271
:10417000023232322202020202000000000000007D
:10418000000000000000000002424202020202029F
:10419000000F0F0F0F0001010111110101000F0F9E
:1041A0000F00013111000F0F000D0D011111101F33
:1041B0001F1F1F10000D0101010101010D0D010064
:1041C00000000000E441000800000020C0080000DA
:1041D000E80100086C450008C0080020080800003D
:1041E0004402000881320182104B24F411011608A8
:1041F00013178080C0E0F070383C1E1E3C3870F011
:10420000E0C08080259809783C1C0E0F0703014D03
:10421000980A010103070F0E1C3C783B2A0C250469
:104220001EF1F1F02CF0F1F13B720C7CFFFFFF1A54
:104230005CF0F07001190B819921D90F091F0B59FE
:104240000F5AE00109170BF9F619F58CF0F8FCED9F
:1042500007100307070F1F3F1DFCF8F0E0FD91005A
:1042600008173F1F0F0707030100121FE0F0F8783F
:104270003C1C1C1E1E1E1C3C3CF8F8F0C049981B40
:10428000F0F82B390D12FF0C1F6A5A5A30292919E0
:1042900008390604176B6B6B1808C0F0FCFE3F0F63
:1042A00007E73930880AE0E0C3071F3FFCF8E0CC9D
:1042B000E1163FFFFFF0803C1F3F7F2F16FFFF7F7F
:1042C0003F0E1AC00802191F00161803070F1F1E01
:1042D0003C3C383878797838383C3C1E0F0F070161
:1042E0000E12808080C0807C4919A91A1808E0F855
:1042F000FC3E1F07030135070F1E0C8B0C1E011916
:1043000064380B83C3C3C78F1F7EFCF0C02E19AB6C
:104310001201B00B207070FCFEFEFC70702019FCC6
:104320001BF0F0F81A0F3512031D03FFFFFE325584
:104330000FFFFFF815010303018DE0F0F8780196F7
:1043400079FBF3F3814AFCFDE80E01071F3F7C78FF
:1043500070F07070783C1FE22F030F1F3E78701DC5
:104360000C187C3F1FFE01215F80C0E0C08080B739
:104370003809F8FF3F07073FFFF8E0191C391DC156
:10438000280F020F1F7FF9E1830307070E0E0707AF
:10439000C849D05910500883E1F97F1F07027809F6
:1043A000E0E0E070707038389E19F21C3C1E0E017F
:1043B000561E3CF8F0E029E21B383827192D2A0751
:1043C000444F0E1C1CFCF8E0731D070F1F3CE25904
:1043D000FE49911EE0F87C1C1C27192D511809403C
:1043E000F0FCFE9F87C1C06C4DF0E0E0C0AD2B80BB
:1043F000C0101954C009C0C1879FFEF8F0404E019B
:10440000030703019111680B031FFFFCE0E0FCFFB1
:104410001F031C291DE11D80C0E0F0C639762977F5
:104420003901290C1B1C1CBA4BF0E07359E1FCFC50
:104430003E0F41AE081E3E3E1C7F260F3EFCF0E0C4
:10444000E5F8FFFF0F1A186606111CDCFEFE3E00A1
:1044500009110FFFFFF81FFFFFF05DC0FCFF3FBD1C
:10446000C125F0FFFF1FBD070F3F7CA1111E7C7F00
:104470007F3B38CDBA18DFBD7C3F0F07A11C0E1C57
:104480003CDC7C7070E001190DAE38383C1C0EDF4E
:10449000580A040C1424FC24140C044A6968127F82
:1044A000136060137878137E7E03177F7F3CF8FCDF
:1044B00004012784C46424FCF8900F3F7F404143EB
:1044C000464643414040407F3F4E387C7E5E180167
:1044D0002AF8FD590C29011A1FE16159A31A20017C
:1044E0002AE0854A0701295F7B0701AE41A72040EA
:1044F00080FC4830074C0402013F120C396F133D19
:104500002F460801020405139D2D460802030106EB
:1045100013E52846080304020713E92A46080401A4
:10452000030813E11B1B080501293D13392E1B0845
:104530000601320213F9041A08C93309031A993023
:104540001901330A0413811C2E08090909071813DD
:10455000511E1B080A01294913011D395001E24966
:0C456000E79A8004591802101E291C0064
:04000005080001AD41
:00000001FF
